{
    "_format": "hh-sol-artifact-1",
    "contractName": "NFTFactory",
    "sourceName": "contracts/NFTFactory.sol",
    "abi": [
        {
            "inputs": [
                {
                    "internalType": "address",
                    "name": "_NFTContract",
                    "type": "address"
                },
                {
                    "internalType": "uint256",
                    "name": "_itemID",
                    "type": "uint256"
                },
                {
                    "internalType": "uint256",
                    "name": "_price",
                    "type": "uint256"
                },
                {
                    "internalType": "address",
                    "name": "_producer",
                    "type": "address"
                }
            ],
            "name": "buyTShirt",
            "outputs": [
                {
                    "internalType": "bool",
                    "name": "",
                    "type": "bool"
                }
            ],
            "stateMutability": "nonpayable",
            "type": "function"
        },
        {
            "inputs": [
                {
                    "internalType": "uint256",
                    "name": "",
                    "type": "uint256"
                }
            ],
            "name": "deployedNFTsContracts",
            "outputs": [
                {
                    "internalType": "contract CustomTShirtNFT",
                    "name": "",
                    "type": "address"
                }
            ],
            "stateMutability": "view",
            "type": "function"
        },
        {
            "inputs": [],
            "name": "getDeployedNFTs",
            "outputs": [
                {
                    "internalType": "contract CustomTShirtNFT[]",
                    "name": "",
                    "type": "address[]"
                }
            ],
            "stateMutability": "view",
            "type": "function"
        },
        {
            "inputs": [
                {
                    "internalType": "string",
                    "name": "uri",
                    "type": "string"
                }
            ],
            "name": "mintTo",
            "outputs": [
                {
                    "internalType": "bool",
                    "name": "",
                    "type": "bool"
                }
            ],
            "stateMutability": "nonpayable",
            "type": "function"
        },
        {
            "inputs": [
                {
                    "internalType": "uint256",
                    "name": "",
                    "type": "uint256"
                }
            ],
            "name": "orders",
            "outputs": [
                {
                    "internalType": "address",
                    "name": "buyer",
                    "type": "address"
                },
                {
                    "internalType": "address",
                    "name": "NFTContract",
                    "type": "address"
                },
                {
                    "internalType": "uint256",
                    "name": "itemID",
                    "type": "uint256"
                },
                {
                    "internalType": "uint256",
                    "name": "price",
                    "type": "uint256"
                },
                {
                    "internalType": "address",
                    "name": "producer",
                    "type": "address"
                }
            ],
            "stateMutability": "view",
            "type": "function"
        },
        {
            "inputs": [],
            "name": "register",
            "outputs": [
                {
                    "internalType": "address",
                    "name": "",
                    "type": "address"
                }
            ],
            "stateMutability": "nonpayable",
            "type": "function"
        },
        {
            "inputs": [
                {
                    "internalType": "address",
                    "name": "",
                    "type": "address"
                }
            ],
            "name": "userAlreadyRegistered",
            "outputs": [
                {
                    "internalType": "bool",
                    "name": "",
                    "type": "bool"
                }
            ],
            "stateMutability": "view",
            "type": "function"
        },
        {
            "inputs": [
                {
                    "internalType": "address",
                    "name": "",
                    "type": "address"
                }
            ],
            "name": "userToNFTContract",
            "outputs": [
                {
                    "internalType": "address",
                    "name": "",
                    "type": "address"
                }
            ],
            "stateMutability": "view",
            "type": "function"
        },
        {
            "inputs": [],
            "name": "withdrawUSDT",
            "outputs": [
                {
                    "internalType": "bool",
                    "name": "",
                    "type": "bool"
                }
            ],
            "stateMutability": "nonpayable",
            "type": "function"
        }
    ],
    "bytecode": "0x608060405234801561001057600080fd5b50612300806100206000396000f3fe608060405234801561001057600080fd5b50600436106100935760003560e01c8063362e496b11610066578063362e496b1461011657806397a976461461011e578063a85c38ef14610131578063b8889e6414610178578063dd5f89561461018d57600080fd5b80630eb718591461009857806318b9948d146100d05780631aa3a008146100e35780632eec798614610103575b600080fd5b6100bb6100a63660046106c1565b60026020526000908152604090205460ff1681565b60405190151581526020015b60405180910390f35b6100bb6100de3660046106f9565b6101b6565b6100eb610264565b6040516001600160a01b0390911681526020016100c7565b6100bb6101113660046107aa565b610380565b6100bb610538565b6100eb61012c3660046107f0565b6105bb565b61014461013f3660046107f0565b6105e5565b604080516001600160a01b03968716815294861660208601528401929092526060830152909116608082015260a0016100c7565b610180610635565b6040516100c79190610809565b6100eb61019b3660046106c1565b6001602052600090815260409020546001600160a01b031681565b3260009081526002602052604081205460ff166101d7576101d5610264565b505b326000908152600160205260409081902054905163eb1beba360e01b81526001600160a01b0390911690819063eb1beba390610217908690600401610856565b6020604051808303816000875af1158015610236573d6000803e3d6000fd5b505050506040513d601f19601f8201168201806040525081019061025a91906108a4565b5060019392505050565b3260009081526002602052604081205460ff16156102c85760405162461bcd60e51b815260206004820152601760248201527f5573657220616c72656164792072656769737465726564000000000000000000604482015260640160405180910390fd5b6000326040516102d790610697565b6001600160a01b039091168152602001604051809103906000f080158015610303573d6000803e3d6000fd5b5060008054600181810183557f290decd9548b62a8d60345a988386fc84ba6bc95484008f6362f93160ef3e56390910180546001600160a01b0385166001600160a01b0319918216811790925532845260208381526040808620805490931690931790915560029052909120805460ff1916909117905591505090565b60405163c685042160e01b8152600481018390526001600160a01b038281166024830152600091869182169063c6850421906044016020604051808303816000875af11580156103d4573d6000803e3d6000fd5b505050506040513d601f19601f820116820180604052508101906103f891906108bd565b50506040805160a0810182523281526001600160a01b03968716602082019081529181019586526060810194855292861660808401908152600380546001808201835560009290925294517fc2575a0e9e593c00f959f8c92f12db2869c3395a3b0502d05e2516446f71f85b600590960295860180546001600160a01b0319908116928b1692909217905592517fc2575a0e9e593c00f959f8c92f12db2869c3395a3b0502d05e2516446f71f85c860180548516918a1691909117905595517fc2575a0e9e593c00f959f8c92f12db2869c3395a3b0502d05e2516446f71f85d85015593517fc2575a0e9e593c00f959f8c92f12db2869c3395a3b0502d05e2516446f71f85e84015592517fc2575a0e9e593c00f959f8c92f12db2869c3395a3b0502d05e2516446f71f85f909201805490931691909416179055919050565b326000908152600160209081526040808320548151632e6131a560e11b815291516001600160a01b03909116928392635cc2634a9260048083019392829003018188875af115801561058e573d6000803e3d6000fd5b505050506040513d601f19601f820116820180604052508101906105b291906108bd565b50600191505090565b600081815481106105cb57600080fd5b6000918252602090912001546001600160a01b0316905081565b600381815481106105f557600080fd5b6000918252602090912060059091020180546001820154600283015460038401546004909401546001600160a01b03938416955091831693909290911685565b6060600080548060200260200160405190810160405280929190818152602001828054801561068d57602002820191906000526020600020905b81546001600160a01b0316815260019091019060200180831161066f575b5050505050905090565b6119eb80620008e083390190565b80356001600160a01b03811681146106bc57600080fd5b919050565b6000602082840312156106d357600080fd5b6106dc826106a5565b9392505050565b634e487b7160e01b600052604160045260246000fd5b60006020828403121561070b57600080fd5b813567ffffffffffffffff8082111561072357600080fd5b818401915084601f83011261073757600080fd5b813581811115610749576107496106e3565b604051601f8201601f19908116603f01168101908382118183101715610771576107716106e3565b8160405282815287602084870101111561078a57600080fd5b826020860160208301376000928101602001929092525095945050505050565b600080600080608085870312156107c057600080fd5b6107c9856106a5565b935060208501359250604085013591506107e5606086016106a5565b905092959194509250565b60006020828403121561080257600080fd5b5035919050565b6020808252825182820181905260009190848201906040850190845b8181101561084a5783516001600160a01b031683529284019291840191600101610825565b50909695505050505050565b600060208083528351808285015260005b8181101561088357858101830151858201604001528201610867565b506000604082860101526040601f19601f8301168501019250505092915050565b6000602082840312156108b657600080fd5b5051919050565b6000602082840312156108cf57600080fd5b815180151581146106dc57600080fdfe608060405260006007553480156200001657600080fd5b50604051620019eb380380620019eb8339810160408190526200003991620000df565b6040518060400160405280600981526020016854686520507269736d60b81b81525060405180604001604052806005815260200164505249534d60d81b81525081600090816200008a9190620001b6565b506001620000998282620001b6565b5050600880546001600160a01b039093166001600160a01b03199384161790555060098054909116739c4bd6453bdba9e58f4a881a2c6bb0683edca0b917905562000282565b600060208284031215620000f257600080fd5b81516001600160a01b03811681146200010a57600080fd5b9392505050565b634e487b7160e01b600052604160045260246000fd5b600181811c908216806200013c57607f821691505b6020821081036200015d57634e487b7160e01b600052602260045260246000fd5b50919050565b601f821115620001b157600081815260208120601f850160051c810160208610156200018c5750805b601f850160051c820191505b81811015620001ad5782815560010162000198565b5050505b505050565b81516001600160401b03811115620001d257620001d262000111565b620001ea81620001e3845462000127565b8462000163565b602080601f831160018114620002225760008415620002095750858301515b600019600386901b1c1916600185901b178555620001ad565b600085815260208120601f198616915b82811015620002535788860151825594840194600190910190840162000232565b5085821015620002725787850151600019600388901b60f8161c191681555b5050505050600190811b01905550565b61175980620002926000396000f3fe608060405234801561001057600080fd5b50600436106101215760003560e01c806370a08231116100ad578063c685042111610071578063c685042114610259578063c87b56dd1461026c578063c963483c1461027f578063e985e9c514610288578063eb1beba31461029b57600080fd5b806370a08231146101f757806395d89b4114610218578063a22cb46514610220578063a98ad46c14610233578063b88d4fde1461024657600080fd5b806323b872dd116100f457806323b872dd146101a357806342842e0e146101b65780634f8632ba146101c95780635cc2634a146101dc5780636352211e146101e457600080fd5b806301ffc9a71461012657806306fdde031461014e578063081812fc14610163578063095ea7b31461018e575b600080fd5b610139610134366004611197565b6102ae565b60405190151581526020015b60405180910390f35b6101566102d9565b6040516101459190611204565b610176610171366004611217565b61036b565b6040516001600160a01b039091168152602001610145565b6101a161019c366004611247565b610394565b005b6101a16101b1366004611271565b6103a3565b6101a16101c4366004611271565b610433565b600854610176906001600160a01b031681565b610139610453565b6101766101f2366004611217565b610590565b61020a6102053660046112ad565b61059b565b604051908152602001610145565b6101566105e3565b6101a161022e3660046112d6565b6105f2565b600954610176906001600160a01b031681565b6101a1610254366004611399565b6105fd565b610139610267366004611415565b610614565b61015661027a366004611217565b610802565b61020a60075481565b610139610296366004611441565b610913565b61020a6102a936600461146b565b610941565b60006001600160e01b03198216632483248360e11b14806102d357506102d3826109c5565b92915050565b6060600080546102e8906114b4565b80601f0160208091040260200160405190810160405280929190818152602001828054610314906114b4565b80156103615780601f1061033657610100808354040283529160200191610361565b820191906000526020600020905b81548152906001019060200180831161034457829003601f168201915b5050505050905090565b600061037682610a15565b506000828152600460205260409020546001600160a01b03166102d3565b61039f828233610a4e565b5050565b6001600160a01b0382166103d257604051633250574960e11b8152600060048201526024015b60405180910390fd5b60006103df838333610a5b565b9050836001600160a01b0316816001600160a01b03161461042d576040516364283d7b60e01b81526001600160a01b03808616600483015260248201849052821660448201526064016103c9565b50505050565b61044e838383604051806020016040528060008152506105fd565b505050565b6008546000906001600160a01b031632146104a45760405162461bcd60e51b815260206004820152601160248201527013db9b1e481d5cd95c88185b1b1bddd959607a1b60448201526064016103c9565b6009546040516370a0823160e01b81523060048201526000916001600160a01b0316906370a0823190602401602060405180830381865afa1580156104ed573d6000803e3d6000fd5b505050506040513d601f19601f8201168201806040525081019061051191906114ee565b60095460405163a9059cbb60e01b8152336004820152602481018390529192506001600160a01b03169063a9059cbb906044016020604051808303816000875af1158015610563573d6000803e3d6000fd5b505050506040513d601f19601f820116820180604052508101906105879190611507565b50600191505090565b60006102d382610a15565b60006001600160a01b0382166105c7576040516322718ad960e21b8152600060048201526024016103c9565b506001600160a01b031660009081526003602052604090205490565b6060600180546102e8906114b4565b61039f338383610b54565b6106088484846103a3565b61042d84848484610bf3565b6009546000906001600160a01b03166323b872dd3230606461063788605f61153a565b6106419190611551565b61064d9061271061153a565b6040516001600160e01b031960e086901b1681526001600160a01b03938416600482015292909116602483015260448201526064016020604051808303816000875af11580156106a1573d6000803e3d6000fd5b505050506040513d601f19601f820116820180604052508101906106c59190611507565b6107085760405162461bcd60e51b81526020600482015260146024820152731554d115081d1c985b9cd9995c8819985a5b195960621b60448201526064016103c9565b6009546001600160a01b03166323b872dd3284606461072888600561153a565b6107329190611551565b61073e9061271061153a565b6040516001600160e01b031960e086901b1681526001600160a01b03938416600482015292909116602483015260448201526064016020604051808303816000875af1158015610792573d6000803e3d6000fd5b505050506040513d601f19601f820116820180604052508101906107b69190611507565b6107f95760405162461bcd60e51b81526020600482015260146024820152731554d115081d1c985b9cd9995c8819985a5b195960621b60448201526064016103c9565b50600192915050565b606061080d82610a15565b5060008281526006602052604081208054610827906114b4565b80601f0160208091040260200160405190810160405280929190818152602001828054610853906114b4565b80156108a05780601f10610875576101008083540402835291602001916108a0565b820191906000526020600020905b81548152906001019060200180831161088357829003601f168201915b5050505050905060006108be60408051602081019091526000815290565b905080516000036108d0575092915050565b8151156109025780826040516020016108ea929190611573565b60405160208183030381529060405292505050919050565b61090b84610d1c565b949350505050565b6001600160a01b03918216600090815260056020908152604080832093909416825291909152205460ff1690565b6008546000906001600160a01b031632146109925760405162461bcd60e51b815260206004820152601160248201527013db9b1e481d5cd95c88185b1b1bddd959607a1b60448201526064016103c9565b60078054600091826109a3836115a2565b9190505590506109b33282610d91565b6109bd8184610df6565b90505b919050565b60006001600160e01b031982166380ac58cd60e01b14806109f657506001600160e01b03198216635b5e139f60e01b145b806102d357506301ffc9a760e01b6001600160e01b03198316146102d3565b6000818152600260205260408120546001600160a01b0316806109bd57604051637e27328960e01b8152600481018490526024016103c9565b61044e8383836001610e46565b6000828152600260205260408120546001600160a01b0390811690831615610a8857610a88818486610f4c565b6001600160a01b03811615610ac657610aa5600085600080610e46565b6001600160a01b038116600090815260036020526040902080546000190190555b6001600160a01b03851615610af5576001600160a01b0385166000908152600360205260409020805460010190555b60008481526002602052604080822080546001600160a01b0319166001600160a01b0389811691821790925591518793918516917fddf252ad1be2c89b69c2b068fc378daa952ba7f163c4a11628f55a4df523b3ef91a4949350505050565b6001600160a01b038216610b8657604051630b61174360e31b81526001600160a01b03831660048201526024016103c9565b6001600160a01b03838116600081815260056020908152604080832094871680845294825291829020805460ff191686151590811790915591519182527f17307eab39ab6107e8899845ad3d59bd9653f200f220920489ca2b5937696c31910160405180910390a3505050565b6001600160a01b0383163b1561042d57604051630a85bd0160e11b81526001600160a01b0384169063150b7a0290610c359033908890879087906004016115bb565b6020604051808303816000875af1925050508015610c70575060408051601f3d908101601f19168201909252610c6d918101906115f8565b60015b610cd9573d808015610c9e576040519150601f19603f3d011682016040523d82523d6000602084013e610ca3565b606091505b508051600003610cd157604051633250574960e11b81526001600160a01b03851660048201526024016103c9565b805181602001fd5b6001600160e01b03198116630a85bd0160e11b14610d1557604051633250574960e11b81526001600160a01b03851660048201526024016103c9565b5050505050565b6060610d2782610a15565b506000610d3f60408051602081019091526000815290565b90506000815111610d5f5760405180602001604052806000815250610d8a565b80610d6984610fb0565b604051602001610d7a929190611573565b6040516020818303038152906040525b9392505050565b6001600160a01b038216610dbb57604051633250574960e11b8152600060048201526024016103c9565b6000610dc983836000610a5b565b90506001600160a01b0381161561044e576040516339e3563760e11b8152600060048201526024016103c9565b6000828152600660205260409020610e0e8282611663565b506040518281527ff8e1a15aba9398e019f0b49df1a4fde98ee17ae345cb5f6b5e2c27f5033e8ce79060200160405180910390a15050565b8080610e5a57506001600160a01b03821615155b15610f1c576000610e6a84610a15565b90506001600160a01b03831615801590610e965750826001600160a01b0316816001600160a01b031614155b8015610ea95750610ea78184610913565b155b15610ed25760405163a9fbf51f60e01b81526001600160a01b03841660048201526024016103c9565b8115610f1a5783856001600160a01b0316826001600160a01b03167f8c5be1e5ebec7d5bd14f71427d1e84f3dd0314c0f7b2291e5b200ac8c7c3b92560405160405180910390a45b505b5050600090815260046020526040902080546001600160a01b0319166001600160a01b0392909216919091179055565b610f57838383611043565b61044e576001600160a01b038316610f8557604051637e27328960e01b8152600481018290526024016103c9565b60405163177e802f60e01b81526001600160a01b0383166004820152602481018290526044016103c9565b60606000610fbd836110a6565b600101905060008167ffffffffffffffff811115610fdd57610fdd61130d565b6040519080825280601f01601f191660200182016040528015611007576020820181803683370190505b5090508181016020015b600019016f181899199a1a9b1b9c1cb0b131b232b360811b600a86061a8153600a850494508461101157509392505050565b60006001600160a01b0383161580159061090b5750826001600160a01b0316846001600160a01b0316148061107d575061107d8484610913565b8061090b5750506000908152600460205260409020546001600160a01b03908116911614919050565b60008072184f03e93ff9f4daa797ed6e38ed64bf6a1f0160401b83106110e55772184f03e93ff9f4daa797ed6e38ed64bf6a1f0160401b830492506040015b6d04ee2d6d415b85acef81000000008310611111576d04ee2d6d415b85acef8100000000830492506020015b662386f26fc10000831061112f57662386f26fc10000830492506010015b6305f5e1008310611147576305f5e100830492506008015b612710831061115b57612710830492506004015b6064831061116d576064830492506002015b600a83106109bd5760010192915050565b6001600160e01b03198116811461119457600080fd5b50565b6000602082840312156111a957600080fd5b8135610d8a8161117e565b60005b838110156111cf5781810151838201526020016111b7565b50506000910152565b600081518084526111f08160208601602086016111b4565b601f01601f19169290920160200192915050565b602081526000610d8a60208301846111d8565b60006020828403121561122957600080fd5b5035919050565b80356001600160a01b03811681146109c057600080fd5b6000806040838503121561125a57600080fd5b61126383611230565b946020939093013593505050565b60008060006060848603121561128657600080fd5b61128f84611230565b925061129d60208501611230565b9150604084013590509250925092565b6000602082840312156112bf57600080fd5b610d8a82611230565b801515811461119457600080fd5b600080604083850312156112e957600080fd5b6112f283611230565b91506020830135611302816112c8565b809150509250929050565b634e487b7160e01b600052604160045260246000fd5b600067ffffffffffffffff8084111561133e5761133e61130d565b604051601f8501601f19908116603f011681019082821181831017156113665761136661130d565b8160405280935085815286868601111561137f57600080fd5b858560208301376000602087830101525050509392505050565b600080600080608085870312156113af57600080fd5b6113b885611230565b93506113c660208601611230565b925060408501359150606085013567ffffffffffffffff8111156113e957600080fd5b8501601f810187136113fa57600080fd5b61140987823560208401611323565b91505092959194509250565b6000806040838503121561142857600080fd5b8235915061143860208401611230565b90509250929050565b6000806040838503121561145457600080fd5b61145d83611230565b915061143860208401611230565b60006020828403121561147d57600080fd5b813567ffffffffffffffff81111561149457600080fd5b8201601f810184136114a557600080fd5b61090b84823560208401611323565b600181811c908216806114c857607f821691505b6020821081036114e857634e487b7160e01b600052602260045260246000fd5b50919050565b60006020828403121561150057600080fd5b5051919050565b60006020828403121561151957600080fd5b8151610d8a816112c8565b634e487b7160e01b600052601160045260246000fd5b80820281158282048414176102d3576102d3611524565b60008261156e57634e487b7160e01b600052601260045260246000fd5b500490565b600083516115858184602088016111b4565b8351908301906115998183602088016111b4565b01949350505050565b6000600182016115b4576115b4611524565b5060010190565b6001600160a01b03858116825284166020820152604081018390526080606082018190526000906115ee908301846111d8565b9695505050505050565b60006020828403121561160a57600080fd5b8151610d8a8161117e565b601f82111561044e57600081815260208120601f850160051c8101602086101561163c5750805b601f850160051c820191505b8181101561165b57828155600101611648565b505050505050565b815167ffffffffffffffff81111561167d5761167d61130d565b6116918161168b84546114b4565b84611615565b602080601f8311600181146116c657600084156116ae5750858301515b600019600386901b1c1916600185901b17855561165b565b600085815260208120601f198616915b828110156116f5578886015182559484019460019091019084016116d6565b50858210156117135787850151600019600388901b60f8161c191681555b5050505050600190811b0190555056fea264697066735822122074e26cce1d2a3bdf46cc725ec99efcc9b71916ccc3803fa38d5e7c08a77d8b8564736f6c63430008140033a2646970667358221220f93441abfc51c678289966725bff69ac0ca1dbb328e61b0355e83182bd9873a264736f6c63430008140033",
    "linkReferences": {},
    "deployedLinkReferences": {}
}